:100000000C943A000C9444000C9444000C9444006A
:100010000C9444000C9444000C9444000C94440050
:100020000C9444000C9444000C9444000C94440040
:100030000C9444000C9444000C9444000C94440030
:100040000C9444000C9444000C9444000C94440020
:100050000C9444000C9444000C9444000C94440010
:100060000C9444000C9444000C9444000C94440000
:100070000C94440011241FBECFEFD4E0DEBFCDBFEF
:100080000E9466000C947D000C94000023B130E0C7
:10009000A90102C0559547958A95E2F7CA0181707A
:1000A0009927089521E030E0A90102C0440F551FAF
:1000B0008A95E2F7CA0195B16130710519F4892B6F
:1000C00085B908958095892385B90895209A84B1CA
:1000D00084B9289A2C9A2FE78AE196E02150804033
:1000E0009040E1F700C0000063B16295617070E07C
:0E00F00080E090E00E945200EECFF894FFCF27
:00000001FF
