:100000000C943A000C9444000C9444000C9444006A
:100010000C9444000C9444000C9444000C94440050
:100020000C9444000C9444000C9444000C94440040
:100030000C9444000C9444000C9444000C94440030
:100040000C9444000C9444000C9444000C94440020
:100050000C9444000C9444000C9444000C94440010
:100060000C9444000C9444000C9444000C94440000
:100070000C94440011241FBECFEFD4E0DEBFCDBFEF
:100080000E9446000C948B000C940000209A91E092
:1000900085B1892785B92FE33DE083E021503040C9
:1000A0008040E1F700C000002FE33DE083E02150F5
:1000B00030408040E1F700C000002FE33DE083E0E6
:1000C000215030408040E1F700C000002FE33DE0C8
:1000D00083E0215030408040E1F700C000002FE372
:1000E0003DE083E0215030408040E1F700C0000057
:1000F0002FE33DE083E0215030408040E1F700C035
:1001000000002FE33DE083E0215030408040E1F7E4
:0A01100000C00000BDCFF894FFCF3F
:00000001FF
